:02000000D02806
:10000800FF00030E8301AF000A08AE008A017008E2
:10001800A0008B1C18288B10A10A0130A30021080E
:10002800043A031D1828A1012008F0002E088A00B0
:0A0038002F0E8300FF0E7F0E09005B
:100042003728831203130812881208134928081646
:1000520088120813A7010130AC004928881608123B
:100062000813492808170812881249288312031313
:100072003308003A031922283308013A03192828C1
:100082003308023A03192F283308033A0319332895
:02009200080064
:0E0094008312031326088A0025088200080044
:1000A20083120313F8010830FC00700DF80D740878
:1000B200F80203185E28F8070310F00DFC0B56280F
:0200C200080034
:1000C4007828831203130712871207138A28071646
:1000D400871207130130A700AC018A28871607127C
:1000E40007128A280717071287128A288312031314
:1000F4003308003A031963283308013A03196928BD
:100104003308023A031970283308033A0319742890
:020114000800E1
:100116000A3083120313F4003008F00051207008EF
:10012600A4000A30F4003008F00051207808F000EE
:100136007008A80005118515700887003108B300FE
:1001460062203208B30021201A30FC00F830FD008E
:10015600FD0BAB28FC0BAB28000005158511240808
:1001660087003108B30062203208B30021201A301C
:10017600FC00F830FD00FD0BBE28FC0BBE2800007D
:0201860008006F
:100188004A208A110A128000840AA50A0319A60ABD
:08019800F003031DC428080058
:1001A00083120313A101A201A301073083169F004C
:1001B00085018312850101308316860081138B1718
:1001C0000B1601138701831287018316880183129E
:1001D0008801861D69290F30A2008030003AF000A6
:1001E00080302206700203182A298619F8282A2945
:1001F0002308031900292C080319FF282A29A30121
:10020000AD0180302D06F00080301E3A70020318D8
:1002100028298030033AF00080302206700203184B
:100220001B292208B0000130B1000330B2008B203E
:100230000330AA0026292208B0000130B1000230A4
:10024000B2008B200230AA002208A900AD0A0129C1
:10025000A203ED281730A2008030003AF000803071
:10026000220670020318692986193729692923088B
:1002700003193F29270803193E296929A301AD0164
:1002800080302D06F00080301E3A70020318672976
:100290008030033AF00080302206700203185A2999
:1002A0002208B0000330B1000130B2008B200330CF
:1002B000AB0065292208B0000230B1000130B20065
:1002C0008B200230AB002208A900AD0A4029A2030E
:1002D0002C298619FA2B2A08033A031DEE29210836
:1002E000003A031D8529AD0180302D06F0008030D5
:1002F000643A700203188429B0010130B100033060
:10030000B2008B20AD0A7429ED292108013A031DA2
:10031000AD290330A2008030003AF0008030220680
:1003200070020318AA29861D9629AA29AD018030DA
:100330002D06F0008030643A70020318A8292208C4
:10034000B0000130B1000230B2008B20AD0A972915
:10035000A2038B290230A100ED292108023A031DD6
:10036000C329AD0180302D06F0008030643A700260
:100370000318C229B0010330B1000130B2008B2054
:10038000AD0AB229ED292108033A031DED290330F6
:10039000A2008030003AF00080302206700203187C
:1003A000EC29861DD829B001B101B2018B20EC29BE
:1003B000AD0180302D06F0008030643A70020318E1
:1003C000EA292208B0000230B1000130B2008B20CF
:1003D000AD0AD929A203C929A101742B2B08033A1C
:1003E000031D712A2108003A031D082AAD0180303F
:1003F0002D06F0008030643A70020318072AB0011D
:100400000330B1000130B2008B20AD0AF729702A09
:100410002108013A031D302A0330A2008030003A3F
:10042000F00080302206700203182D2A861D192A3A
:100430002D2AAD0180302D06F0008030643A700224
:1004400003182B2A2208B0000230B1000130B2009C
:100450008B20AD0A1A2AA2030E2A0230A100702AAC
:100460002108023A031D462AAD0180302D06F00016
:100470008030643A70020318452AB0010130B1009F
:100480000330B2008B20AD0A352A702A2108033AC6
:10049000031D702A0330A2008030003AF000803043
:1004A0002206700203186F2A861D5B2AB001B10173
:1004B000B2018B206F2AAD0180302D06F000803014
:1004C000643A700203186D2A2208B0000330B100AC
:1004D0000230B2008B20AD0A5C2AA2034C2AA10193
:1004E000742B2B08023A031DF32A2108003A031D3E
:1004F0009F2A2908A2008030003AF00080302206AE
:10050000700203189A2A861D862A9A2AAD01803025
:100510002D06F0008030643A70020318982A2208F1
:10052000B0000230B1000130B2008B20AD0A872A42
:10053000A2037B2A0330A9000130A100F22A21087E
:10054000013A031DB52AAD0180302D06F000803040
:10055000643A70020318B42AB0010130B1000330CC
:10056000B2008B20AD0AA42AF22A2108023A031D08
:10057000DD2A0330A2008030003AF00080302206ED
:1005800070020318DA2A861DC62ADA2AAD018030E5
:100590002D06F0008030643A70020318D82A220831
:1005A000B0000130B1000230B2008B20AD0AC72A82
:1005B000A203BB2A0330A100F22A2108033A031D3B
:1005C000F22AAD0180302D06F0008030643A7002CE
:1005D0000318F22AB0010330B1000130B2008B20C1
:1005E000AD0AE22A742B2A08023A031D742B210853
:1005F000003A031D212B2908A2008030003AF000A8
:1006000080302206700203181C2B861D082B1C2B21
:10061000AD0180302D06F0008030643A700203187E
:100620001A2B2208B0000130B1000230B2008B203A
:10063000AD0A092BA203FD2A0330A9000130A10055
:10064000742B2108013A031D372BAD0180302D0694
:10065000F0008030643A70020318362BB00103308A
:10066000B1000130B2008B20AD0A262B742B21087B
:10067000023A031D5F2B0330A2008030003AF000E5
:1006800080302206700203185C2B861D482B5C2BE1
:10069000AD0180302D06F0008030643A70020318FE
:1006A0005A2B2208B0000230B1000130B2008B207A
:1006B000AD0A492BA2033D2B0330A100742B210866
:1006C000033A031D742BAD0180302D06F0008030FD
:1006D000643A70020318742BB0010130B10003308A
:1006E000B2008B20AD0A642B2B08003A031DFA2BB5
:1006F0002108003A031D8E2BAD0180302D06F0003D
:100700008030643A700203188D2BB0010130B100C3
:100710000330B2008B20AD0A7D2BFA2B2108013A61
:10072000031DBA2B0330A2008030003AF000803065
:10073000220670020318B72B861DA32BB001B1014E
:10074000B2018B20B72BAD0180302D06F000803038
:10075000643A70020318B52B2208B0000130B100D2
:100760000230B2008B20AD0AA42BA203942B0230DE
:10077000A100FA2B2108023A031DD02BAD018030D5
:100780002D06F0008030643A70020318CF2BB001C0
:100790000330B1000130B2008B20AD0ABF2BFA2B21
:1007A0002108033A031DFA2B0330A2008030003ADF
:1007B000F0008030220670020318F92B861DE52B0D
:1007C000B001B101B2018B20F92BAD0180302D06B3
:1007D000F0008030643A70020318F72B2208B00052
:1007E0000230B1000130B2008B20AD0AE62BA2032B
:0807F000D62BA101E928FB2B27
:02400E004A2F37
:00000001FF
